:020000040800F2
:10000000780600208901000891010008930100088A
:100010009501000897010008990100080000000000
:100020000000000000000000000000009B0100082C
:100030009D010008000000009F010008A9030008BE
:10004000A3010008A3010008A3010008A301000800
:10005000A3010008A3010008A3010008A3010008F0
:10006000A3010008A3010008A3010008A3010008E0
:10007000A3010008A3010008A3010008A3010008D0
:10008000A3010008A3010008A3010008A3010008C0
:10009000A3010008A3010008A3010008A3010008B0
:1000A000A3010008A3010008A3010008A3010008A0
:1000B000A3010008A3010008A3010008A301000890
:1000C000A3010008A3010008A3010008A301000880
:1000D000A3010008A3010008A3010008A301000870
:1000E000A3010008A3010008A301000800F002F822
:1000F00000F03AF80AA090E8000C82448344AAF188
:100100000107DA4501D100F02FF8AFF2090EBAE885
:100110000F0013F0010F18BFFB1A43F0010318473B
:100120003403000054030000103A24BF78C878C19B
:10013000FAD8520724BF30C830C144BF04680C60ED
:10014000704700000023002400250026103A28BF35
:1001500078C1FBD8520728BF30C148BF0B60704739
:100160001FB51FBD10B510BD00F031F81146FFF7E7
:10017000F7FF00F063F900F04FF803B4FFF7F2FF68
:1001800003BC00F057F800000948804709480047C1
:10019000FEE7FEE7FEE7FEE7FEE7FEE7FEE7FEE737
:1001A000FEE7FEE704480549054A064B7047000094
:1001B000B9030008ED000008780000207806002050
:1001C000780200207802002070477047704775461B
:1001D00000F02CF8AE4605006946534620F00700B3
:1001E000854618B020B5FFF7DDFFBDE820404FF091
:1001F00000064FF000074FF000084FF0000B21F011
:100200000701AC46ACE8C009ACE8C009ACE8C009DD
:10021000ACE8C0098D46704710B50446AFF30080C6
:100220002046BDE81040FFF7A8BF00000048704717
:100230001800002001491820ABBEFEE7260002008E
:10024000704700000848806940F004000649886152
:10025000064800680020054908600846006840F02C
:10026000113008607047000000100240040801408F
:1002700000BF044909688142FBD30021014A116093
:10028000704700000000002010B500F001F810BD1C
:100290000CB50020019000903348006840F4803095
:1002A0003149086000BF3048006800F40030009019
:1002B0000198401C0190009818B90198B0F5A06F02
:1002C000F1D12948006800F4003010B101200090FD
:1002D00001E0002000900098012843D123480068E5
:1002E00040F01000214908600846006820F007002F
:1002F00008600846006840F0020008601A4840683C
:10030000194948600846406848600846406840F41B
:10031000806048600846406820F47C1048600846C9
:10032000406840F4E81048600846006840F080707B
:10033000086000BF0C48006800F000700028F9D089
:100340000948406820F003000749486008464068B3
:1003500040F00200486000BF0348406800F00C0015
:100360000828F9D10CBD0000001002400020024016
:1003700070B50446002507E04FF47F400949086046
:100380006008FFF775FF6D1CFF2DF5DDFF2506E00A
:100390000020044908606008FFF76AFF6D1E002D09
:1003A000F6DA70BD0C08014002480068401C0149A3
:1003B000086070470000002010B51348006840F046
:1003C00001001149086008464068104908400E497C
:1003D0004860084600680E4908400B490860084616
:1003E000006820F4802008600846406820F4FE0081
:1003F00048604FF41F008860FFF746FF4FF0006031
:100400000449086010BD0000001002400000FFF821
:10041000FFFFF6FE08ED00E0064800680649B0FB65
:10042000F1F04FF0E02148610846006940F0070014
:10043000086170470400002040190100FFF7ECFF3D
:10044000FFF7B2FFFFF7FEFE02E01420FFF790FF78
:10045000FBE7000074040008000000201800000002
:10046000280100088C040008180000206006000025
:10047000440100080000000000A24A04000000003F
:0C04800000000000010203040607080948
:04000005080000ED02
:00000001FF
